:020000022000DC
:1070000080470220ADE804002F3F070099E8040004
:1070100099E8040099E8040099E8040000000000E1
:1070200000000000000000000000000081EA0400F1
:1070300099E8040000000000E1E9040099E8040078
:1070400029EE04003190070029EE040029EE040027
:1070500029EE040029EE040029EE040029EE0400C4
:107060000190070029EE040029EE04001B900700A0
:1070700029EE040029EE040029EE040029EE0400A4
:1070800029EE040029EE040029EE040029EE040094
:1070900029EE040029EE040029EE040029EE040084
:1070A00029EE040029EE040029EE040029EE040074
:1070B00029EE0400C12E060029EE040029EE04008A
:1070C00029EE040029EE040029EE040029EE040054
:1070D00029EE040029EE040029EE040029EE040044
:1070E00029EE040029EE040029EE040029EE040034
:1070F00029EE040029EE040029EE040029EE040024
:107100002F4B10B500222F4CC3F84825C3F8442557
:10711000C3F84025C3F84C250CF0ACF8238D952B13
:1071200034D894F85D302BB111F06CF900283CD1C3
:1071300084F85D00002011F071F988BBE26B2249F0
:107140001F4B9FED1D7B42F04462C1F808251F4A8A
:10715000C3F848050221E063C3F844052076C3F86C
:10716000400584ED0C7BC3F84C05C3F84801C3F817
:107170004401C3F84001C3F84C01C2F88010BFF3CA
:107180004F8FBFF36F8FC2F8801110BD0DF004FA5E
:1071900001300128C5D940F211513E2001F09EF97D
:1071A00040F22A513E2001F099F940F227513E2049
:1071B00001F094F9AFF3008000000000000000002F
:1071C000008000402024002000F0014000E100E0A9
:1071D0009FED177B70B5184A184D002342F220002E
:1071E0002021A97028806B76136082F82830AB715B
:1071F00082ED027B85ED047B1C46EB71A9762B7634
:107200006A1802F814300134202CFAD101260C48F7
:107210002E7210F05BFE0B4B18700B4B1C7010F0B5
:10722000C5FEC5F8A0000DF0ABFFEE7670BD00BF47
:10723000FFFFFFFFFFFFFFFF60290020E029002084
:107240007D570300902900205829002081F000413B
:1072500002E000BF83F0004330B54FEA41044FEA3B
:10726000430594EA050F08BF90EA020F1FBF54EAD6
:10727000000C55EA020C7FEA645C7FEA655C00F072
:10728000E2804FEA5454D4EB5555B8BF6D420CDD43
:107290002C4480EA020281EA030382EA000083EAC6
:1072A000010180EA020281EA0303362D88BF30BD66
:1072B00011F0004F4FEA01314FF4801C4CEA1131BC
:1072C00002D0404261EB410113F0004F4FEA03331B
:1072D0004CEA133302D0524263EB430394EA050FA6
:1072E00000F0A780A4F10104D5F1200E0DDB02FA15
:1072F0000EFC22FA05F2801841F1000103FA0EF2A9
:10730000801843FA05F359410EE0A5F120050EF16E
:10731000200E012A03FA0EFC28BF4CF0020C43FA9F
:1073200005F3C01851EBE37101F0004507D54FF0AC
:10733000000EDCF1000C7EEB00006EEB0101B1F5FC
:10734000801F1BD3B1F5001F0CD349085FEA300042
:107350004FEA3C0C04F101044FEA445212F5800F4D
:1073600080F09A80BCF1004F08BF5FEA500C50F1EA
:10737000000041EB045141EA050130BD5FEA4C0CCD
:10738000404141EB0101013C28BFB1F5801FE9D22A
:1073900091F0000F04BF01460020B1FA81F308BF4D
:1073A0002033A3F10B03B3F120020CDA0C3208DD19
:1073B00002F1140CC2F10C0201FA0CF021FA02F1F4
:1073C0000CE002F11402D8BFC2F1200C01FA02F164
:1073D00020FA0CFCDCBF41EA0C019040E41AA2BF89
:1073E00001EB0451294330BD6FEA04041F3C1CDA51
:1073F0000C340EDC04F11404C4F1200220FA04F071
:1074000001FA02F340EA030021FA04F345EA03011A
:1074100030BDC4F10C04C4F1200220FA02F001FADC
:1074200004F340EA0300294630BD21FA04F029465E
:1074300030BD94F0000F83F4801306BF81F48011F7
:107440000134013D4EE77FEA645C18BF7FEA655C6A
:1074500029D094EA050F08BF90EA020F05D054EA3C
:10746000000C04BF1946104630BD91EA030F1EBF41
:107470000021002030BD5FEA545C05D14000494145
:1074800028BF41F0004130BD14F580043CBF01F538
:10749000801130BD01F0004545F0FE4141F470011E
:1074A0004FF0000030BD7FEA645C1ABF19461046F9
:1074B0007FEA655C1CBF0B46024650EA013406BFFA
:1074C00052EA033591EA030F41F4002130BD00BFB9
:1074D00090F0000F04BF0021704730B54FF4806476
:1074E00004F132044FF000054FF0000150E700BFF7
:1074F00090F0000F04BF0021704730B54FF4806456
:1075000004F1320410F0004548BF40424FF0000142
:107510003EE700BF42004FEAE2014FEA31014FEA85
:1075200002701FBF12F07F4393F07F4F81F06051D4
:10753000704732F07F4208BF704793F07F4F04BF1F
:1075400041F40021704730B54FF4607401F00045FC
:1075500021F000411CE700BF50EA010208BF70475C
:1075600030B54FF000050AE050EA010208BF70474D
:1075700030B511F0004502D5404261EB41014FF4B6
:10758000806404F132045FEA915C3FF4D8AE4FF0BE
:1075900003025FEADC0C18BF03325FEADC0C18BFA1
:1075A000033202EBDC02C2F1200300FA03FC20FAF2
:1075B00002F001FA03FE40EA0E0021FA02F114443F
:1075C000BDE600BF70B54FF0FF0C4CF4E06C1CEA58
:1075D00011541DBF1CEA135594EA0C0F95EA0C0FC9
:1075E00000F0DEF82C4481EA030621EA4C5123EA3C
:1075F0004C5350EA013518BF52EA033541F480116B
:1076000043F4801338D0A0FB02CE4FF00005E1FB1D
:1076100002E506F00042E0FB03E54FF00006E1FB67
:1076200003569CF0000F18BF4EF0010EA4F1FF04AA
:10763000B6F5007F64F5407404D25FEA4E0E6D41EA
:1076400046EB060642EAC62141EA55514FEAC520FB
:1076500040EA5E504FEACE2EB4F1FD0C88BFBCF577
:10766000E06F1ED8BEF1004F08BF5FEA500E50F128
:10767000000041EB045170BD06F0004646EA0101EE
:1076800040EA020081EA0301B4EB5C04C2BFD4EB20
:107690000C0541EA045170BD41F480114FF0000E19
:1076A000013C00F3AB8014F1360FDEBF002001F087
:1076B000004170BDC4F10004203C35DA0C341BDC01
:1076C00004F11404C4F1200500FA05F320FA04F0D3
:1076D00001FA05F240EA020001F0004221F0004107
:1076E00010EBD37021FA04F642EB06015EEA430E7A
:1076F00008BF20EAD37070BDC4F10C04C4F12005AA
:1077000000FA04F320FA05F001FA04F240EA02005C
:1077100001F0004110EBD37041F100015EEA430E2D
:1077200008BF20EAD37070BDC4F1200500FA05F24D
:107730004EEA020E20FA04F301FA05F243EA0203CC
:1077400021FA04F001F0004121FA04F220EA0200DB
:1077500000EBD3705EEA430E08BF20EAD37070BD21
:1077600094F0000F0FD101F00046400041EB010101
:1077700011F4801F08BF013CF7D041EA060195F0E3
:10778000000F18BF704703F00046520043EB03039D
:1077900013F4801F08BF013DF7D043EA060370478A
:1077A00094EA0C0F0CEA135518BF95EA0C0F0CD095
:1077B00050EA410618BF52EA4306D1D181EA0301DB
:1077C00001F000414FF0000070BD50EA410606BFD5
:1077D0001046194652EA430619D094EA0C0F02D11A
:1077E00050EA013613D195EA0C0F05D152EA03365F
:1077F0001CBF104619460AD181EA030101F000417D
:1078000041F0FE4141F470014FF0000070BD41F0C5
:10781000FE4141F4780170BD70B54FF0FF0C4CF49F
:10782000E06C1CEA11541DBF1CEA135594EA0C0FBE
:1078300095EA0C0F00F0A7F8A4EB050481EA030E0B
:1078400052EA03354FEA013100F088804FEA0333F2
:107850004FF0805545EA131343EA12634FEA0222C0
:1078600045EA111545EA10654FEA00260EF0004181
:107870009D4208BF964244F1FD0404F5407402D2D3
:107880005B084FEA3202B61A65EB03055B084FEA64
:1078900032024FF480104FF4002CB6EB020E75EB61
:1078A000030E22BFB61A754640EA0C005B084FEA89
:1078B0003202B6EB020E75EB030E22BFB61A754606
:1078C00040EA5C005B084FEA3202B6EB020E75EB51
:1078D000030E22BFB61A754640EA9C005B084FEAC9
:1078E0003202B6EB020E75EB030E22BFB61A7546D6
:1078F00040EADC0055EA060E18D04FEA051545EAC5
:1079000016754FEA06164FEAC30343EA52734FEA6D
:10791000C2025FEA1C1CC0D111F4801F0BD141EAE6
:1079200000014FF000004FF0004CB6E711F4801F4B
:1079300004BF01430020B4F1FD0C88BFBCF5E06F2B
:107940003FF6AFAEB5EB030C04BFB6EB020C5FEA3B
:10795000500C50F1000041EB045170BD0EF0004E90
:107960004EEA113114EB5C04C2BFD4EB0C0541EAC2
:10797000045170BD41F480114FF0000E013C90E6BF
:1079800045EA060E8DE60CEA135594EA0C0F08BF83
:1079900095EA0C0F3FF43BAF94EA0C0F0AD150EA82
:1079A00001347FF434AF95EA0C0F7FF425AF104615
:1079B00019462CE795EA0C0F06D152EA03353FF43D
:1079C000FDAE1046194622E750EA410618BF52EABA
:1079D00043067FF4C5AE50EA41047FF40DAF52EA8E
:1079E00043057FF4EBAE12E74FEA410212F50012B5
:1079F00015D211D56FF47873B3EB625212D94FEAF6
:107A0000C12343F0004343EA505311F0004F23FADF
:107A100002F018BF404270474FF00000704750EA34
:107A2000013005D111F0004008BF6FF000407047F1
:107A30004FF00000704700BF4FEA4102B2F1E0434F
:107A400024BFB3F5001CDCF1FE5C0DD901F0004C45
:107A50004FEAC0024CEA5070B2F1004F40EB830095
:107A600008BF20F00100704711F0804F21D113F1C1
:107A70003872BCBF01F00040704741F480114FEAFA
:107A80005252C2F11802C2F1200C10FA0CF320FA83
:107A900002F018BF40F001004FEAC1234FEAD323A0
:107AA00003FA0CFC40EA0C0023FA02F34FEA43030A
:107AB000CCE77FEA625307D150EA01331EBF4FF093
:107AC000FE4040F44000704701F0004040F0FE40AE
:107AD00040F40000704700BF7BB972B90029BEBFF7
:107AE00000204FF0004106E008BF00281CBF6FF0E7
:107AF00000414FF0FF3000F057B8ADF1080C6DE9D0
:107B000004CE002909DB002B1ADB10F0B2FEDDF8F1
:107B100004E0DDE9022304B07047404261EB41011B
:107B2000002B1BDB10F0A5FEDDF804E0DDE90223ED
:107B300004B0404261EB4101524263EB43037047A2
:107B4000524263EB430310F094FEDDF804E0DDE9FC
:107B5000022304B0404261EB41017047524263EBA3
:107B6000430310F086FEDDF804E0DDE9022304B0F3
:107B7000524263EB4303704753B94AB9002908BF27
:107B800000281CBF4FF0FF314FF0FF3000F00CB861
:107B9000ADF1080C6DE904CE10F06BFEDDF804E0E9
:107BA000DDE9022304B07047704700BF2DE9F007FC
:107BB00091E8F807B2E802105B1854EB0C04B2E845
:107BC00002104D4156EB0C06B2E802104F4158EB43
:107BD0000C08B2E8021059EB01095AEB0C0A80E8D4
:107BE000F80780410130BDE8F00770472DE9F00744
:107BF00091E8F807B2E802105B1A74EB0C04B2E8E3
:107C000002108D4176EB0C06B2E802108F4178EB42
:107C10000C08B2E8021079EB01097AEB0C0A80E853
:107C2000F80780414042BDE8F00770472DE9F007B2
:107C3000524290E87800B1E880071740DB1918EA53
:107C4000020854EB080419EA020955EB09051AEA7F
:107C5000020A56EB0A0678C090E87800B1E880077F
:107C600017407B4118EA020854EB080419EA02099C
:107C700055EB09051AEA020A56EB0A0678C080415C
:107C80000130BDE8F00770472DE9F007524290E857
:107C90007800B1E880071740DB1B18EA020874EB94
:107CA000080419EA020975EB09051AEA020A76EBDB
:107CB0000A0678C090E87800B1E880071740BB4119
:107CC00018EA020874EB080419EA020975EB0905C1
:107CD0001AEA020A76EB0A0678C080414042BDE803
:107CE000F00770472DE9F00152424FF0040890E888
:107CF000300091E8C000A31B1340E41AF618EB1BF8
:107D00001340ED1AFF1830C0C0C1B8F10108EED120
:107D1000BDE8F001704700BF00B592EC080AB1E879
:107D2000805707EE101A53EC102A56EC114AA7FBA5
:107D30000251A8FB020BE7FB6310E9FB62B041ECC8
:107D4000145AA8FB0351EAFB6201E7FB64B5E7FBA9
:107D50006605E8FB661505EE10BAA9FB03B6EAFB5B
:107D60006316ECFB6356E8FB640BE9FB641BEAFB60
:107D7000645BECFB646B05EE900AACFB023012EE28
:107D8000104AEEFB6250E9FB6460EAFB64B0E7FB7B
:107D90006431E8FB645112EE904AE8FB6461E9FB50
:107DA00064B1EAFB640106EE103AA7FB043213EE5D
:107DB000104AE7FB6462E8FB64B2E9FB6402EAFB99
:107DC000641211EE904AE9FB6453EAFB646313EE1C
:107DD000904AE7FB64B3E8FB6403E9FB6413EAFB46
:107DE000642306EE905A17EE109A99E8000610EEFA
:107DF000108AA9FB0854EAFB68B412EE108AECFB67
:107E00006804EEFB6814E9FB6824EAFB683410EEB2
:107E1000908AEEFB6865E9FB68B5EAFB680512EE3F
:107E2000908AECFB6815EEFB6825E9FB6835EAFBF8
:107E3000684507EE106A11EE108AAEFB0876E9FB82
:107E40006806EAFB681613EE108AECFB6826EEFB68
:107E50006836E9FB6846EAFB685611EE908AECFB4F
:107E600068B7EEFB6807E9FB6817EAFB682713EEC3
:107E7000908AECFB6837EEFB6847E9FB6857EAFB42
:107E8000686700BD2DE9F04F07EE900AFFF744FF49
:107E900017EE908A07EE90BAA8EC084A88E8FF002F
:107EA000BDE8F08F00B591E89857A3FB0352A3FB00
:107EB0000401E3FB6420E3FB671042EC145AA3FBCC
:107EC0000752E3FB6802E4FB6415E3FB6805E3FB90
:107ED0006925A4FB07B6E3FB6926E3FB6A56E4FBCE
:107EE000670BE4FB682BE3FB6A5BE3FB6C6B40EC2A
:107EF000151AA4FB0810E4FB6950E3FB6C60E3FB7C
:107F00006EB0E7FB6721E4FB6951E4FB6A61E3FBC8
:107F10006EB1E4FB6E0106EE102AA7FB0832E4FB0B
:107F20006A62E4FB6CB2E4FB6E02E7FB6E12E7FBF5
:107F30006853E7FB6963E4FB6CB3E7FB6C03E7FBA7
:107F40006E13E8FB6E2306EE905AA7FB0954E7FB7D
:107F50006AB4E7FB6C04E8FB6C14E8FB6E24E9FBF5
:107F60006E34E8FB6865E7FB6AB5E8FB6A05E8FB89
:107F70006C15E9FB6C25E9FB6E35EAFB6E4507EEF7
:107F8000106AA8FB0976E8FB6A06E9FB6A16E9FBBA
:107F90006C26EAFB6C36EAFB6E46ECFB6E56E8FBA1
:107FA00069B7E9FB6907E9FB6A17EAFB6A27EAFB9D
:107FB0006C37ECFB6C47ECFB6E57EEFB6E6700BD5D
:107FC0002DE9F04F07EE900AFFF76CFF17EE908A4D
:107FD00007EE90BAA8EC084A88E8FF00BDE8F08FE9
:107FE00030B44FF0000310F8014B11F8015B013A77
:107FF00084EA050443EA0403F5D1A3F101034FEA3F
:10800000D37030BC704700BF4FF0000310F8012B55
:10801000013943EA0203F9D1A3F101034FEAD37016
:10802000704700BF30B411F8014B12F8015B6C408F
:1080300000F8014B013BF6D130BC70472DE9F00749
:1080400091E8F807B2E802105B1854EB0C04B2E8B0
:1080500002104D4156EB0C06B2E802104F4158EBAE
:108060000C08B2E8021059EB01095AEB0C0A8941DD
:10807000B3F1FF3374F1FF3475F1FF3576F100068B
:1080800077F1000778F1000879F101097AF1FF3AF8
:1080900051F100015B184C414D4156F1000657F17A
:1080A000000758F1000859EBD1795AEB010A80E832
:1080B000F807BDE8F00770472DE9F00791E8F807E9
:1080C000B2E802105B1A74EB0C04B2E802108D41A6
:1080D00076EB0C06B2E802108F4178EB0C08B2E8A0
:1080E000021079EB01097AEB0C0A89415B184C41CB
:1080F0004D4156F1000657F1000758F1000859EBC1
:10810000D1795AEB010A80E8F807BDE8F00770471B
:1081100018EB040859EB05095AEB060A5BEB070B51
:108120005FF0000C4CF1000C18EB050859EB060948
:108130005AEB070A5BEB070B50EB0C005FF0000CEF
:1081400051EB0C0152EB0C0263414CF1000CB8EB0B
:10815000070879F100097AF1000A7BEB040BA841CA
:10816000B141A241B3416CF1000CBBEB050BB04136
:10817000B941AA41BB416CF1000C4CF001068CF0F6
:10818000020718EB060859EB6C095AEB6C0A7BEBFB
:108190006C0B70EB6C0471EB6C0572EB670653EBC8
:1081A0006C076CEB6C0C18EB0C0059EB0C015AEBE8
:1081B0000C025BF1000354F1000455F1000556EB8D
:1081C000DC7657EB0C0770472DE9F04F07EE900A6D
:1081D000FFF7A2FD59EC168A17EE10AAFFF798FFD9
:1081E00059EC148A5BEC15AAFFF792FF17EE908A00
:1081F00088E8FF00BDE8F08F2DE9F04F07EE900A08
:10820000FFF750FE59EC168A17EE10AAFFF780FF11
:1082100059EC148A5BEC15AAFFF77AFF17EE908AE7
:1082200088E8FF00BDE8F08F2DE9F047A74E86B043
:10823000F27B0023CDE902338DF80E20727D8DF89C
:108240001020B27D33788DF81120F27D8DF8093041
:108250008DF812207378327E8DF80A308DF8132055
:10826000B378727E8DF80B308DF81420F37896F881
:1082700026208DF80C3000F1070933798DF80D3088
:1082800080460F4629F007090AB18DF80F30002FFC
:1082900008BF484602A918BF002000F081FD3378CE
:1082A00009EB000596F801904FF0000A4B445FFA85
:1082B00083F954465FFA8AF34B45C0F0F480E81C1A
:1082C00020F00305002F21460CBF2846002000F0B7
:1082D0004FFFB1782C1879B1F378F27BE01C20F0D5
:1082E0000304002F1A4408BF20467389D2B218BF76
:1082F000002000F0B1FF044496F827308BB1717A6A
:1083000079B196F82830E01C002B20F0030414BF4C
:10831000FF222522002F0CBF2046002001F08CF800
:108320000444317B81B1B37823B996F827305BB12F
:10833000737A4BB1E01D20F00704002F0CBF2046DC
:10834000002008F09FFB0444614B1B6863B1317946
:1083500051B1E01C20F00304002F08BF2046727BBF
:1083600018BF0020984704445A4B1B6853B1B17B97
:1083700041B1E01C20F00304002F0CBF2046002078
:1083800098470444544B1D687DB1F17B69B1E01CF2
:1083900020F00304B37C0093002F08BF2046737CB9
:1083A000327C18BF0020A847044496F826306BB1F1
:1083B000317959B1E01C20F00304002F08BF20469A
:1083C000327D18BF002001F059F80444F07F68B1F5
:1083D000737EB17D033424F0070444F0040419448F
:1083E00022463B46C9B201F089F8044496F82010B1
:1083F000002962D0E01D20F00705002F4FF0FB029E
:108400000CBF2846002011F097FA2C181FB9FB2149
:1084100028460CF06DF8B17E002950D0B37F002BB8
:108420004DD0E01D20F00709002F4FF48C720CBFD7
:108430004846002011F080FA09EB0004337EB17D3C
:10844000B07F033424F0070444F0040419442246A6
:108450003B46C9B201F044F804442FB9B17E4FF451
:108460008A7248460CF066F8F36A13B107B9F462F1
:10847000283496F8241089B1E01D20F00705002F5C
:1084800042F210720CBF2846002011F055FA2C1849
:1084900027B942F2107128460CF052F8A4EB0800FC
:1084A00006B0BDE8F087337AF279B179707911F0CE
:1084B00015FA0AF1010A0444FCE60D46A6E7002F6E
:1084C000D2D13A4639463846CCE700BF00180020E2
:1084D000540000205C000020580000208FB572B6C8
:1084E000194B1D6BE5B9BFF34F8F1849184BCA687C
:1084F00002F4E0621343CB60BFF34F8F00BFFDE790
:10850000B4FBF6F4DAB20133002CF9D102F1100316
:108510006B440A2603F80C4C32B901A8A847E2E7DD
:10852000044600230A26EDE7531E04AC54FA83F4F4
:10853000DAB2C3B2B3FBF6F706FB1733303304F8F5
:108540000C3CB0FBF6F0E7E70018002000ED00E07F
:108550000400FA051FB5164C237A8DF80930E3792B
:108560008DF80830A379ADF80C3002A86379ADF826
:108570000A3006F06DFD18B1B5210320FFF7AEFFFC
:10858000012301A88DF8043012F0F5F908B1B921E2
:10859000F3E7A07C06F08CFD08B1BC21EDE7607C20
:1085A00006F080FD08B1BD21E7E704B010BD00BFB3
:1085B0000018002038B50546002842D00FF0DAFB3D
:1085C00010B94FF0FF3038BD0CF044FAB0F5FA7F27
:1085D000F7D81E4C1E482563002500F097FA262286
:1085E0002946204684F8345084F8355084F82750C2
:1085F00084F82850E56284F826500FF091FE1B2283
:10860000627140F21B32E28040F2023240F201130A
:1086100022811F222380628101234FF40272A37002
:10862000A281237544F60112FB232282A383638473
:10863000EFF3108472B600F081FF2CB962B62046C9
:10864000C1E76FF01500BEE72846BCE70018002020
:108650005585020010B5002840F0A680554C94F8CE
:108660003430002B40F09D80A1B1002A6DD001393B
:10867000142900F29980DFE801F00B191C2C545CDE
:1086800075325F6270383E4B507A7D8B8E918200DE
:108690001378237001210020FFF7C6FDB0F5803F5D
:1086A00080F28580012384F8353010BD1378637023
:1086B000F0E79378002B48D0D378002B45D013787F
:1086C0001A2B42D953781A2B3FD91368C4F80530B6
:1086D000E0E71378E278934237D3A370DAE71378B0
:1086E000A278934231D8E370D4E71378A27893420A
:1086F0002BD8E373CEE713783BB35378013BDBB25F
:10870000F82B22D8138823822B4B92789A70C1E7DA
:108710001078E07409F0F2FEBCE71378ABB1237572
:10872000B8E7137894F827200AB1012B0DD96372AA
:10873000B0E713886381ADE713782371AAE794F853
:108740002610137821B9012B04D86FF01500ACE77F
:10875000002BFAD0137863739CE71378082BF4D8B6
:10876000A37397E71388FF2BEFD8237392E713784F
:1087700063758FE713780E2BE7D8A3758AE7136824
:108780000E49C4F81A3053684B6013890B8181E796
:108790001378E3757EE7137863767BE713782376A7
:1087A00078E74FF0FF3080E76FF02C007DE76FF047
:1087B0000B007AE700180020101800201A1800207B
:1087C00070B50D460646F0B1E9B111F007041AD1B3
:1087D00000F0D0F8D0B130460FF078FB0D4E2146B6
:1087E00086F836002846FFF71FFD13F041FE96F885
:1087F0003600F16A06F0D6FCFFF7ACFE012386F8DE
:108800003430204670BD6FF01500FBE74FF0FF30AD
:10881000F8E700BF0018002010B5084C94F8343079
:108820002BB106F0DBFC94F836000FF06BFB11F077
:10883000C8F9002084F8340010BD00BF00180020E3
:1088400050B1074B03F1140253F8041B40F8041B0A
:108850009342F9D1002070476FF01500704700BFB8
:10886000ECBE0800074B93F8352010B532B993F8E9
:1088700034401CB906F060FC204610BD4FF0FF30BC
:10888000FBE700BF00180020074B93F8352010B518
:1088900032B993F834401CB906F062FC204610BD92
:1088A0004FF0FF30FBE700BF00180020074B93F8A4
:1088B000352010B532B993F834401CB906F0FEFBF0
:1088C000204610BD4FF0FF30FBE700BF001800202E
:1088D000074B93F8352010B532B993F834401CB9E2
:1088E00012F092F8204610BD4FF0FF30FBE700BFBA
:1088F00000180020074B93F8352010B532B993F8D3
:1089000034401CB912F083F8204610BD4FF0FF3000
:10891000FBE700BF00180020074B93F8352010B587
:1089200032B993F834401CB912F074F8204610BDE7
:108930004FF0FF30FBE700BF00180020054B10B5DB
:1089400093F834401CB906F0E3F8204610BD4FF010
:10895000FF30FBE70018002007C8024B83E8070040
:108960000020704738180020014B9B68184700BF53
:1089700038180020024B9868003818BF0120704753
:108980003818002073B52E4D031D04462B60284671
:1089900007F012FB0228064606D12949204610F0AE
:1089A000E5F8304602B070BD042842D12B78092B7F
:1089B0000AD0252B1ED02946204610F03EF9B0F5EE
:1089C000817F2DD3722112E005213E2010F0A1F805
:1089D0000028F0D1EB782A7901A943EA02236846FE
:1089E000ADF8003010F021FD0028D0D05321082030
:1089F000FFF774FD1A213E2010F08BF80028DAD121
:108A00006B68C3F30F23ADF804306946112301A846
:108A10008DF8063010F01DFD0028B8D06521E6E77E
:108A20000028B4D0A178207810F073F80028B8D1CD
:108A3000ADE70828B5D10249204610F0C6F8B0E7E6
:108A400044180020074B4FF0FF3141F6FF72C3E995
:108A5000001205490022C1E900221F21C3E90212C8
:108A6000704700BF00000020481900203F280CD8A4
:108A700001380B4BC0F3421200F01F0053F82230B4
:108A800023FA00F000F001007047FF2806D04038BC
:108A9000C0F34212034B00F01F00EFE701207047C4
:108AA00000000020481900200146074B0068496873
:108AB0001A4603C240F48C221A6041F0107242F44C
:108AC000FF625A60704700BF000000200246024B60
:108AD0000068516803C37047481900200246024BE2
:108AE0000068516803C37047080000200138064B36
:108AF000C0F3421203EB820300F01F009B6823FACD
:108B000000F000F00100704700000020014B1860E9
:108B1000704700BF5019002007B5FFF793FF11F011
:108B2000C2FA044B1B6813B101909847019803B037
:108B30005DF804FB501900200B880288F0B5C3F3E0
:108B40000E049EB204F11803C57CC35A05352A44AD
:108B50002B4497B213FA82F3013B4288B3FBF7F33D
:108B600013FB07439BB29A42044A93BF22EA0603CF
:108B7000324013439BB20B80F0BD00BF0080FFFF6B
:108B800010B5114B00EB41041A786389B3FBF2F383
:108B900003FB0223013A1A44B2F5706F027928BF31
:108BA00000231A448378B2FBF3F0194403FB10202E
:108BB000091AB1FBF3F003FB101313446FEA4343AC
:108BC0006FEA5343638110BD5419002010B5124B56
:108BD000E0B15A78022A04D040F259111720FFF769
:108BE0007DFC03225A70026812F0070102D04FF494
:108BF000AF71F3E75C685A60224402609A60BDE896
:108C00001040302203F10C000FF08ABB01225A7091
:108C1000C3E9010010BD00BF541900202DE9F04147
:108C2000254E96F801E00EF0FD0CBCF1010F04D0CA
:108C300040F273111720FFF751FC91F80680B8F14C
:108C4000080F02D940F27511F4E7CF7997B3454682
:108C5000022D726838BF02257B1D5C0002EB4303C6
:108C60006A1E13446D422B408D884544013DC8F176
:108C700000022A404FF6FE75AA4202D94FF4C07195
:108C8000D8E7BEF1030F12D106EB80001C1BC568AC
:108C900015B140F28511CDE7C460A770228084F839
:108CA00003C0087A09682071080CE080218107FB65
:108CB00002337360BDE8F081541900202DE9F047BC
:108CC000364C6378012B65D0032B04D040F295110C
:108CD0001720FFF703FCD4E901329A4202D04FF487
:108CE000CC71F5E72546002305F80C3B1E460B2208
:108CF000994655F82200013A58B190F804808178DD
:108D0000B8F1FF0F2FD180F804908E423CBFCEB255
:108D10000123511CEDD103B126700B2640F6FF69EB
:108D200055F826709FBB013EFAD2042363700020E1
:108D3000BDE8F08755F82CE0BEF1000F06D09EF894
:108D400004A0C24504BF9EF802E077440CF1FF3C4A
:108D5000BCF1000FEEDA3944FF2907D903B12670C0
:108D60004FF49A71B4E794460027F1E70771CCE716
:108D700007EB41033846A3F80A90FFF701FF08F11B
:108D80000108BB785FFA88F18B42F1D8CBE74FF04E
:108D90000008F6E7022360686370C9E754190020F1
:108DA0002DE9FF474A788B781344FF2B06460C4683
:108DB00004D940F2AB111720FFF790FB0B789342D8
:108DC00002D940F2AF11F6E7DFF8FC81009038B12C
:108DD00098F80130022B02D00020FFF7E1FF68462F
:108DE000FFF7F4FE00276E4A6378019208254FF4DE
:108DF0005A7201A93846ADF808208DF80B308DF86D
:108E00000A508DF80C70FFF709FF664AA3780192AB
:108E100001A94FF47A720120ADF808208DF80B30CB
:108E20008DF80A508DF80C70FFF7F8FE5E4AE37873
:108E300001924FF0FF094FF4AC7201A90220ADF886
:108E400008208DF80B308DF80A508DF80C90FFF744
:108E5000E5FE564A2379019201A990220320ADF83C
:108E600008208DF80B308DF80A508DF80C90FFF724
:108E7000D5FE63794E4A01928DF80B30A82201236A
:108E800001A90420ADF808208DF80C308DF80A50A7
:108E9000FFF7C4FEA379474A0192CDE902778DF826
:108EA0000A508DF80B308DF80C901BB109F01AFBAD
:108EB000ADF8080001A90520FFF7B0FE3E4AE379AE
:108EC0000192082580224FF0FF0901A90620ADF884
:108ED00008208DF80B308DF80C908DF80A50FFF7B4
:108EE0009DFE237A354A01928DF80B3078220223B9
:108EF00001A90720ADF808208DF80C308DF80A5034
:108F0000FFF78CFE2E4A637A019200274FF40A7213
:108F100001A92846ADF808208DF80B308DF80A50CD
:108F20008DF80C70FFF77AFE264AA37A019201A908
:108F30004FF48C720920ADF80820DFF890A08DF86E
:108F40000B308DF80C908DF80A504FF48879FFF7AC
:108F500065FEE37A8DF80B3001A90A20CDF804A054
:108F6000ADF808908DF80A508DF80C70FFF756FE9A
:108F7000237B8DF80B3001A90B20CDF804A0ADF8B0
:108F800008908DF80A508DF80C70FFF747FEFFF738
:108F900095FED8F80400801B04B0BDE8F08700BF40
:108FA00095C203001DC2030089BC020037C3030041
:108FB0000925030029C403002DC4030025E3020092
:108FC0008DE2020079E302005419002021E402003E
:108FD000F8B54FF6FF730380184B03EB810105468C
:108FE000C868B8B186780379B3FBF6F206FB123392
:108FF000DBB219460A1D00EB4202B2F90270548836
:10900000002F09DB0131B1FBF6F206FB1211C9B2E8
:109010008B42EFD10020F8BDFF29FBD0C4F30E0333
:10902000C4782B8024B940F2C7211720FFF756FAE5
:109030005380BDE8F84010F030BC00BF5419002048
:109040001E4B03EB810170B5CC6805464CB3B0F5FF
:10905000706F04D340F2D5211720FFF73FFA014685
:10906000204610F0FCFBFF28014604D02046BDE856
:10907000704010F012BCA078B5FBF0F300FB135366
:10908000DBB219460A1D04EB4206B6F90260002E57
:1090900009DB0131B1FBF0F200FB1211C9B28B42C6
:1090A000F0D1002070BDFF29FBD08B4204EB4202BF
:1090B0001CBF0023E3705580D8E700BF541900207F
:1090C000094B03EB810110B5CC680146204610F036
:1090D000C6FBFF28014604D02046BDE8104010F032
:1090E000DCBB002010BD00BF541900200F4B03EB68
:1090F000810170B5CC6806460146204610F0AFFBF2
:10910000FF28054610D00146204610F0C6FBE28835
:109110002389014643EA02433046984720462946C0
:10912000FFF72EFD002070BD0320FCE7541900203E
:1091300038B50E4B827903EB82030446D86808B930
:10914000022038BD8278E1799142F9D24B1CE3715B
:1091500000EB41035D89B3F90A30002BF3DBA580F6
:1091600010F09BFB20600020EBE700BF54190020AB
:1091700070B5044610F003000E4603D049211820B4
:10918000FFF7ACF910F010FB054624B10348314657
:10919000046010F009FB284670BD00BF9019002044
:1091A0002DE9F04F1E4C85B092462268BDF83CB0C8
:1091B00098468146BDF838300D461AB95B21182013
:1091C000FFF78CF91A460A215046039310F097F9DD
:1091D0005A4606460921404610F091F931180746D3
:1091E000206810F00BFB039BC9F8000018B9286039
:1091F00005B0BDE8F08F84192C60D9F80000009309
:10920000524631460A2310F02CF92868CDF838B0C0
:1092100009234246394605B0BDE8F04F10F021B9A8
:109220009019002070B50E46044610F071F90546FD
:10923000304610F06DF9044B2A1821461868BDE835
:10924000704010F005BB00BF90190020014B18685A
:1092500010F0C7BA90190020F8B511441D4EC9B2DC
:1092600010F00305317003D04E210920FFF736F9C5
:109270001F2B19D89B009BB2033323F003039BB22F
:1092800008B17060338101EB81047668E2004FF031
:10929000010C00EBC404EFB2B94212D8D01D03FB9D
:1092A000010020F00700F8BDFF2B4FEA430204D96C
:1092B000FF339342DFDB93B2DEE77C2AFBDC7C23C7
:1092C000DAE710B186F800C07460013528361C4416
:1092D000E1E700BF9419002038B5144A14785368A8
:1092E0000021C8B2844203D8A9210920FFF7F6F86B
:1092F0001846013105782833002DF2D00124128957
:1093000044700021446881708161C161920800F15C
:109310002001051D21F8022B994245F8044B144405
:10932000F8D100234361037038BD00BF94190020B9
:109330000A4B1B89B3F5FF7F4FEA930006D25A0808
:109340009B1A9BB2984238BF18467047B3F5EE6F30
:1093500001D8FF22F4E740F27263F3E7941900208A
:109360002DE9F8434B7880460C4602F0040602F0E3
:10937000FB07D3B1DFB12F4BD4F804901D89BFBBDD
:1093800001236370AD08A761E76104F120034A4639
:10939000211D04F1280023F8025B984241F8042BB8
:1093A0002A44F8D10023636101E0002FE3D0002EAE
:1093B0004FF0FF0318BF0226A370A3191B7D032BD8
:1093C00003D1022F1CBF0136F6B2A31901221A7570
:1093D00006F10C0204EB8606002324F812307268B2
:1093E000A370C8F80020A8F804304046BDE8F88310
:1093F000002114226170A0180EF092FFB5F5FF7FD6
:109400000FD26B08ED1AADB209EB0502C4F8049057
:109410002584A2606384C4F80C90A5842261E3844F
:10942000C5E7B5F5EE6F4FF0FF03EBD940F272657B
:10943000EAE700BF941900202DE9F7431FFA82F8EC
:109440001FFA81F904460F4616462E214A46404629
:1094500010F055F805465CB12E230146CDF800907A
:10946000424620460FF0FDFF034B1C601F715E71EA
:10947000284603B0BDE8F083A01900202DE9F7438A
:1094800005460C46F7200521904610F038F80646B0
:1094900085B115F0030703D08F211920FFF71EF8BF
:1094A000DFF83890C9F81050A9F81400A5B2BBB283
:1094B0009D4204D806FB04F003B0BDE8F083B9F880
:1094C00014C0D9F81000CDF8008007FB0C0005236C
:1094D000F72231460FF0C5FF0137E8E7B019002049
:1094E00007B5CDE900230B4603490246081D10F0DD
:1094F00042FB03B05DF804FBC819002013B5064C0D
:10950000CDE900230B46024604F1080104F10C00EA
:1095100010F031FB02B010BDC8190020024B01460B
:10952000D3E9002010F094B9C8190020024B01467D
:10953000D3E9022010F08CB9C8190020134B012286
:1095400000214FF0FF309A60C3F80012C3F80803FF
:10955000C3F80015C3F804259A60C3F80803C3F8DC
:109560000015C3F804250A490A4A03F580334FF46D
:109570000040C3F80825C1F88000BFF34F8FBFF348
:109580006F8FC1F88001C3F80825704700F00040D4
:1095900000E100E00000F63F8C46382300B50CF8EF
:1095A000033B054B8E4607CBCEF80300CCF80410E6
:1095B000CCF808205DF804FBE419002070B5234DB9
:1095C000E96AAC6A0B7803F00303032B04F1A804E7
:1095D0001AD16B8E2A8E0120034342F400626B86FF
:1095E00020746B6B2A869847E96A237E013B18BF7B
:1095F000012323764B7833B1D4E92232013342F18F
:109600000002C4E9223270BD002BEED04B78002B53
:10961000EBD02A8E42F400622A86AA6B002AF2D08E
:10962000FB2B08D895F83C3063B16B6B0021BDE88B
:1096300070402020184795F83D3043F0100385F81E
:109640003D3070BD01230370CFE700BFD819002063
:1096500010B5114C09F00EFE09F0FEF8636B208E78
:1096600000219847237E4BB9236C94F83D1094F861
:109670003E009847002384F8443010BD94E807006A
:1096800004F10C0383E807000449022204F11900E5
:1096900012F097F8E8E700BFD8190020999502006A
:1096A000034B93F8443003B97047FFF7D1BF00BFB5
:1096B000D8190020012923D838B51C4DAB6C0446BD
:1096C0009847D8B195F83D30C3B995F8240010B14A
:1096D0001CB1002038BD012CFCD195F84C30DC06C3
:1096E000C3F300110ED50023AA6B92B1C0B16A8EEC
:1096F000920715D5AB6DDB78022BEAD0012038BD7F
:10970000012070472B6D1B78C3F30013C3F10103D5
:10971000EAE7B5F85420002AE8D00029EED0E5E7C2
:10972000002BEBD16A8E002AD3D0E7E7D8190020AE
:1097300008B5094B93F84420022A07D1DA7A42F09F
:109740000102DA72BDE80840FFF782BF40F23D2116
:109750002720FEF7C3FE00BFD8190020F8B5254C1E
:10976000A66A236DE36296F8CB30054606F1A8079A
:1097700094F85C000BB10430C0B296F871100DB9CA
:10978000FF282ED009F0DAFA97F823301BB3206EA9
:109790000AF000F994F82430216EE06A003B18BF0B
:1097A000012384F88030D7E92223C4E91E2308F07E
:1097B000FFFF3DB996F8710010F00C0018BF28208B
:1097C0000AF052F996F8701000200AF0B5F9022359
:1097D00084F84430F8BDE06A0AF0DCF809F03CF89F
:1097E000E7E796F870209142D0D009F0A7FA97F8F1
:1097F0002330CBE7D819002070B57F4CA56A82B022
:1098000095F8CB20002305F1A8068DF8053094F8D3
:109810005C300AB10433DBB210B9FF2B00F0B28028
:1098200095F87010FF2009F089FAB37D032B00F240
:10983000DE80DFE803F0021D807094F8C230ADF8DE
:1098400006306E48A5F8603005F0C0FE002840F0F4
:10985000A180D4F8C4000DF105020DF106010FF04E
:1098600079FEA06520B196F86130002B00F0A98048
:109870006348A065F37DDB0003F00802037803F082
:10988000F3031343327E920002F00402134303F009
:10989000EF0203F00303032B027002D1C378022B03
:1098A00012D0D4F8C4000FF0C0FE48B9A06D027801
:1098B00002F00303032B07D005F0AEFE002879D198
:1098C000A06D027842F01002027096F8223013B1B7
:1098D0004378002B43D10AF05DF808F0BDFFA66D78
:1098E00006F00CFD20B1337803F00303032B64D0A2
:1098F00095F8711001200AF01FF9A36D414A1888EC
:109900009978A4F84C00012384F8C830917084F849
:10991000443002B070BD394805F058FE002861D0CF
:10992000A06DC3781B2BA5D1012105F1100009F012
:109930003BFAA06D9EE7B5F86030D4F8C400ADF8EE
:1099400006300DF105020DF106010FF003FEA065D2
:1099500000288FD140F2D6212720FEF7BFFD206ED0
:109960000AF018F8D6E9200194F82430B3FA83F30A
:10997000C4E91E015B09A16D206E84F8803008F0F7
:1099800017FFACE795F8713095F870108B427FF4B3
:1099900049AF4AE7638EA16D626B43F0800380207C
:1099A00063869047A06D01217174C3781B2B7FF4EF
:1099B00061AFBAE7A06D027886E701200AF0EAFFFE
:1099C00096E79DF805302BB1BDF8061011F0B4FEF6
:1099D000A06D4FE703808370A06D012111F0BBFDE6
:1099E000A06DF1E740F2DF212720FEF777FD4FF46D
:1099F0003B712720FEF772FDD8190020301A002095
:109A0000681A0020241A00202DE9F041434C94F8F4
:109A10004420A56A012A82B006460F4605F1A80532
:109A20005FFA82F874D12B7C6BB1638E002143F016
:109A3000040363862974636B0420984794F82430E8
:109A40000BB185F81280A16D0A7802F00302032A97
:109A500036D04B78EBB10223AB7595F82330F3B1D8
:109A6000A36A93F87110D5E92223C4E91E2394F860
:109A7000243094F85C20003B18BF0123013984F89E
:109A8000803007293FD8DFE801F03B133E113E3E0E
:109A90003E380123AB7595F82330002BE0D106B991
:109AA00007BB02B0BDE8F041FFF7D2BD4FF003089D
:109AB000002300931A494346012008F001FEEEE717
:109AC000AB7D63B9638E43F0020363860220636B50
:109AD0009847A16D0B7803F00303032BB9D103233F
:109AE000AB75BAE731463046FFF7E4FD0028D8D120
:109AF00002B0BDE8F041FFF731BE4FF00208D7E7F2
:109B00004FF00008D4E740F2B9310620FEF7E6FC3A
:109B100040F25C412720FEF7E1FC00BFD81900208D
:109B2000401A002070B50C4B0C4C0D4A1A6094F88A
:109B3000443063B906460D4603F0FF02012104F1EB
:109B40009000227611F007FD2665256670BDDF21A5
:109B50002720FEF7C3FC00BF60000020D8190020BA
:109B600014A40200044A92F8443003F0FF000BB939
:109B7000107670470C207047D8190020024B012244
:109B800083F83C20704700BFD81900202DE9F0432E
:109B9000B94C85B002AD85E8030094F844100C98E8
:109BA000002940F0D281002A00F0CF81002B00F084
:109BB000CC81002800F0C98101F0FF06206495E8FF
:109BC0000300A36404F1240383E80300A56A62632D
:109BD00084F83C6084F83D6084F8C96084F83E6095
:109BE00084F8C8606686268609F03EF908F034FEDF
:109BF00095F9740009F058FA05F1A807A86A09F068
:109C0000ADFE286A09F056FA97F8330009F05CFABD
:109C100094F82430002B69D004200EF037FCEA6958
:109C200041F64B539A4294BF4D20962009F05AF8C2
:109C3000A36A93F8D832002B40F01B8195F871107D
:109C4000012009F0C7FB002863D08C4B186809F08D
:109C50008BFE6B69C4F8C430AB69C4F8CC3095F89E
:109C60007F301BB9A96F002940F0C380D7F890005E
:109C7000D7F89410D7F89820D7F89C30DFF800C2B6
:109C8000ACE80F00D7F8A030C4F88130D7F8A43082
:109C9000CCF80D30A36A94F8241093F8C520A2F1F3
:109CA0002600002938D1012803D993F8C6002628B8
:109CB00038D193F81A2393F87080002A40D0B8F175
:109CC000080F3DD0B8F1040F00F02481082A00F0FD
:109CD0002181042A00F01E81B8F1010F30D0012A41
:109CE00014BF4FF002084FF0010829E003200EF0E6
:109CF000CDFBEA6941F64B539A4294BF4D20962022
:109D000008F0F0FF95F87010002009F063FB0028C0
:109D10009BD105B0BDE8F08301287BD993F8C6003C
:109D2000262877D0213A012A40F2CA80242800F060
:109D3000E58093F87080B8F1040F08BF4FF0080871
:109D400005F138094146484611F0F9FD414611F048
:109D5000E3F8B5F8442095F871100346934228BF04
:109D60001346484684F8C23011F0AFFD95F87110E3
:109D700097F82380B5F84C90082908BF042111F00A
:109D8000CBF8B8F1000F01D1043080B2484528BFAC
:109D900048465FFA80F884F8D08006F0AFFA20B128
:109DA000B8F12B0F38BF4FF02B0894F8243084F80B
:109DB0005C80002B56D197F82220002A39D0D7E9B1
:109DC0002001012284F8802095F87020C4E91E014A
:109DD000E86941F64B51013A884294BF04200020C3
:109DE000072A00F29A80DFE802F01E9D981D9898DD
:109DF000989FB7F84E20BB8A93427FF437AFB5F8EF
:109E00007C201344A7F84E3095F87E0001220AF01A
:109E1000A5FD2BE793F8B62393F87080002A7FF412
:109E20004EAF8DE70323002200921549FB2208F074
:109E300047FC0120FFF7E0FC124BD3F8503523F02C
:109E40000803032B00F086800023C4E90033A360DD
:109E50002A88B98A97F8333061802280237105B04F
:109E6000BDE8F08397F8233073B90120FFF776FC43
:109E7000E2E708F0E7FFE1E6D819002060000020E3
:109E8000401A002000100040D7E9220195F87130F7
:109E90000122013BC4E91E0184F88020072B3CD835
:109EA000DFE803F005443B043B3B3B46032600212F
:109EB000009133462A494246012008F001FCD4E7CC
:109EC00024281BD000293FF434AF93F86E2193F877
:109ED000708050071ED412F001032BD193077FF539
:109EE0002FAFB8F1080F3FF42BAFB8F1040F11D02A
:109EF000B8F1010F18BF4FF0020821E700293FF425
:109F000018AF93F8691093F86E2193F870800A40A7
:109F10005107E0D54FF0080812E740F2B9310620AA
:109F2000FEF7DCFA01237EE702237CE70126BEE789
:109F30000226BCE7B8F1080F3FF402AFB8F1040FF6
:109F400014BF98464FF00808FAE64FF4A87127208E
:109F5000FEF7C4FA4FF4FD712720FEF7BFFA00BFE9
:109F6000401A002010B5184C94F84430EBB194F826
:109F700024308BB194F84430022B20D1A36AD3F85B
:109F8000F00209F03FFDA16A91F87F3003F0FF0273
:109F90000BB98B6F63B910BD94F84430012BF2D02C
:109FA00040F20F212720FEF799FAFFF751FBEAE76D
:109FB00091F87E00BDE8104011460AF0CFBC40F297
:109FC00013212720FEF78AFAD8190020FFF740BB9B
:109FD000014B1876704700BFD8190020014B93F849
:109FE000C8007047D8190020024B188EC0F380209B
:109FF000704700BFD8190020014B93F8C900704783
:10A00000D81900202DE9F0411E4FBC6A820782B0AA
:10A0100005460E4604F1A80411D4EB070CD5D4E98B
:10A020002232217E013342F100020129C4E92232A9
:10A030000CBF00230123237602B0BDE8F081BB6B87
:10A04000DBB1B7F85420F96A1846033291F8018061
:10A050000EF0F0F80DF1020201A9F862D7F8CC0079
:10A060000FF098FB01980FF07FFB01223060414612
:10A07000D7F8CC000FF024FBCFE740F24D4127206A
:10A08000FEF72CFAD81900202DE9F047B24C86B023
:10A090000023CDE904338DF80F3094F84430A56ADD
:10A0A000022B06460F4605F1A8055FFA83F840F03B
:10A0B000A281238E13F0400106D1636B40209847A4
:10A0C000238E43F040032386002E5AD095F8233088
:10A0D000002B40F01881D4F82CA09AF8011089B216
:10A0E000A4F85410002940F025810023A3639AF8B6
:10A0F0000000238EE97DC0F3800243F48073914217
:10A10000238600F0CC80A26A94F8241002F1A809FA
:10A1100099F81620EAB1022A00F05381002389F849
:10A12000163021B199F81220002A40F03F8199F8A9
:10A130001130002B40F0168199F81730D4F82CA07C
:10A14000012B0CBF0023012389F817309AF8000077
:10A15000238E43F4806222862A7EC0F3C0039A4293
:10A160004FF0000900F0A28006F0C8F8C0B19AF8DC
:10A17000003003F00303032B12D101200AF00AFC84
:10A180000EE095F82320002A40F0B98043F40073D4
:10A19000238694F8C930013384F8C9304FF00009A0
:10A1A00095F822305BB394F82430A26AB3FA83F3B3
:10A1B0005B0995ED207B84F8803092F87030D0698F
:10A1C000013B41F64B5284ED1E7B904294BF04202C
:10A1D0000020072B00F2E280DFE813F08E00080079
:10A1E000E0008B00E000E000E0000A004FF0010812
:10A1F0000022009259494346FB2208F061FA47B910
:10A2000094F8C9100120FFF755FA0746002800F01E
:10A21000998009F0FFFC01279DF80F307BBBB9F155
:10A22000000F08D094F82430002B59D1B4F809302D
:10A230000133A4F809303EB3B4F8053000220133ED
:10A24000A4F8053084F8C920454806F059FB049865
:10A2500040B10FF089FAA16A00234372082201304D
:10A2600011F09DFA059B33B1A16A00221A7205987C
:10A27000102211F094FA6FB906B0BDE8F08705A975
:10A280000220FFF7BFFECAE7B4F807300133A4F895
:10A290000730D9E7FFF7DCF906B0BDE8F0872A7E82
:10A2A000C0F3C0039A42B1467FF45EAF06F026F8D1
:10A2B00000284AD0D4F82CA09AF8003003F0030309
:10A2C000013B012B41D89AF8012094F8D0309A42F2
:10A2D0003BD994F83D3043F0100384F83D3043E718
:10A2E000B4F80530B4F80710AA8A0B431343A2D080
:10A2F0009CE74FF003087BE74FF0000878E708F091
:10A3000015FB238E42E708F0D7FA08F0B9FAD4F823
:10A310002CA09AF8011000287FF4E1AE002942D069
:10A320009AF800302A7EC3F3C0039A425DD089B206
:10A33000A4F85410D4F8CC000FF098F9D4F82CA05D
:10A34000A063D4E6FFF758FA66E70DF10F00FFF7B8
:10A3500035F9D4F82CA007E7D8190020401A0020BE
:10A36000FC1900204FF0000A89F811A005F03EF911
:10A3700000284AD0638E43F0080363865146636B1E
:10A3800008209847D9F880300133C9F88030D9F8CF
:10A39000843043F10003C9F88430CDE640F2B9318E
:10A3A0000620FEF79BF8A4F854109EE689F81230B8
:10A3B0001946638E43F0100363861020636B984741
:10A3C000B5E6D4F8C40004A90FF0E7F8C0B1D9F895
:10A3D000803094F824100133C9F88030D9F88430E3
:10A3E00043F10003C9F8843098E6012384F83E3035
:10A3F000FFF72EF940E740F2CF412720FEF76EF835
:10A4000040F2CB312720FEF769F840F2E2312720F5
:10A41000FEF764F83197020089A00200099A020051
:10A42000A19602000B46062203F8032BB0F809C0E0
:10A43000C27AA1F803C09A70704700BF06230B7060
:10A44000D0F80F301A88A1F8032093F8CD304B7163
:10A45000024B5B6800229A67704700BFEC22002025
:10A460000B46172203F8032BD0F809C0D0F80D20B3
:10A47000C1F803C05A60704710B5392301F8033B97
:10A4800000F109032930D3F800E0D3F804C09A683A
:10A49000DC68CC6010338342C1F800E0C1F804C02E
:10A4A0008A6001F11001EED11B880B8010BD00BF46
:10A4B000124B134A33F8113003F2E733A2FB0323A4
:10A4C000082900F1FF324FEA93134FEAC2120FD06E
:10A4D000042907D0022914BFF0216021134401FB95
:10A4E0000030704740F2BE21134401FB003070473A
:10A4F0004FF4D261134401FB00307047C8D307000A
:10A50000D34D621030B5D928844628BF4FF0D90CFE
:10A510000CF1300CBDF80C401FFA8CFCBCF1FF0FA5
:10A5200028BF4FF0FF0C04F0020514F0010486462A
:10A5300038D1002D64D001F5A570082A00F01481EF
:10A54000042A00F0C580022A14BF4FF414714FF49E
:10A550009671014412F00C0F40D1082A00F00C81D2
:10A56000042A00F00C81022A14BF4FF4B070B4200A
:10A570009C31014401F19800B4BB002B00F0AC8089
:10A58000082A00F03C81042A00F09981022A40F652
:10A59000480308BF4FF48563BEF1D90F184400F299
:10A5A000428130BD01F5A570002DC6D1002B42D1EE
:10A5B000082A00F01C81042A00F09C81022A00F085
:10A5C000B7810CF1050C1FFA8CFC282108250CFB27
:10A5D000051C12F00C0F0CEB0001BED001F614416B
:10A5E00001F19800002CC8D0082A00F0C180042A8C
:10A5F00000F0C880022A14BFC0236423184430BD71
:10A6000001F5A5702BB3082A00F04381042A00F05D
:10A610007981022A40F6480308BF4FF48563BEF1F2
:10A62000D90F1844BDD9AEF1D903C5499BB2F63351
:10A6300081FB0341FEE0082A00F0D680042A00F0E6
:10A640003B81022A40F6480114BF8C464FF4856CCA
:10A65000BFE7082A00F01181042A00F05B81022A7A
:10A6600000F004810CF1050C1FFA8CFC282408234F
:10A670000CFB034CBEF1D90F604492D9B149AEF145
:10A68000D90E1FFA8EFEA1FB0E31AEEB010301EBDA
:10A690005301042AC1F3C71146D1C1EB4113C1EBE9
:10A6A000C303AEEB030341F208329BB202FB01008D
:10A6B000002B3FF476AF03F1080292B205324FF45B
:10A6C000BF74102100F5A57302FB0142D01830BD04
:10A6D00040F2CE5101443DE77346F12B28BFF123F0
:10A6E000082A53D0042A00F0FE80022A00F01A81C2
:10A6F00013339BB228214FF0080C03FB0C13BEF15F
:10A70000D90F18447FF64DAF8E49AEF1D90E1FFA1E
:10A710008EFEA1FB0E31AEEB010301EB5301042AC7
:10A72000C1F3C71100F09280C1EB4113C1EBC30329
:10A73000022AAEEB030E40F6921540F272541FFA55
:10A740008EF318BF2C4604FB01000CBF18242824EC
:10A75000002B3FF426AF0833022A9BB203F1050217
:10A760000CBF04210821ADE741F2D0210144F1E6FC
:10A770004FF4CA63184442E74FF43560F8E640F2FC
:10A78000EE30F5E640F2AE23184438E713339BB2BF
:10A7900000EB8310BEF1D90F00F5C8707FF601AF52
:10A7A000684AAEF1D90E1FFA8EFEA2FB0E32AEEB56
:10A7B000020302EB5302C2F3C712C2EB4213C2EB15
:10A7C000C303AEEB030E44F2DA311FFA8EF301FB42
:10A7D0000200002B3FF4E5AE03F1080292B205320D
:10A7E0004FF4C87440216DE744F2902CF1E60CF16F
:10A7F000050C1FFA8CFC4FF4C8714025E7E601F503
:10A800008640BEF1D90F00F128007FF6CAAEAEF146
:10A81000D9024B4B92B2F63283FB02131344DB1185
:10A8200044F2DA310FE0AEF1D901454B89B2F6318D
:10A8300083FB01430B4440F6921440F27251DB114A
:10A84000022A18BF214601FB030030BDC1EB4113B2
:10A85000C1EBC303AEEB030E41F208321FFA8EF3D5
:10A8600002FB0100002B7FF426AF30BD0CF1050C7C
:10A870001FFA8CFC18240423FAE60CF1050C1FFACD
:10A880008CFC00EB8C13BEF1D90F03F5C87087D890
:10A8900087E644F2DA32BEF1D90F01EB02007FF60F
:10A8A00080AEAEF1D901264B89B2F63183FB01436C
:10A8B0000B44DB111146C6E741F2BE1C89E601F5E7
:10A8C0009250BEF1D90F00F116007FF66AAEAEF1DC
:10A8D000D9021B4B92B2F63283FB02131344DB11F5
:10A8E00041F20831AFE713339BB24FF4BF714FF021
:10A8F000100C02E70CF1050C1FFA8CFC4FF4BF7131
:10A90000102564E641F20832BEF1D90F01EB0200D6
:10A91000C7D830BD0CF1050C1FFA8CFC4FF4BF7486
:10A920001023A5E613339BB218214FF0040CE4E684
:10A930000CF1050C1FFA8CFC1821042547E600BF1A
:10A94000C9F9A98491F353092DE9F041314ED6F8A4
:10A9500000C0DCF80F300B624FF000089CF8153097
:10A9600062F3070862F30F2815469CF814201B04B5
:10A9700043EA02239CF8132013438B6284B00746FA
:10A98000BCF819000C4610F026FB3368E061014664
:10A99000987D019110F02CFB336820860199B3F863
:10A9A000170010F038FB3368E062B3F81B20A28474
:10A9B000B3F81D20E28493F8242002F01F0284F8EB
:10A9C000D920D3F81F00029093F823308DF80C3073
:10A9D00002A904F1CD0010F06EFB336893F8243027
:10A9E000A4F870805B0984F8D932FF2315F00C0FAE
:10A9F00014BF0121002104F1380084F8723005F001
:10AA0000D7FB97F91410204610F0CEFA04B0BDE839
:10AA1000F08100BFAC1A0020F8B544888C4614F0D1
:10AA20000404054608BF2146134618BF05F1770107
:10AA30006246C07F04F0A6FFC207044606D4A307FF
:10AA400012D484F00400C0F38000F8BD012385F81F
:10AA50006830E87F04F0FAFF0368C5F8693083883E
:10AA6000A5F86D30A307ECD5084E0127306885F8AE
:10AA7000767005F1770110F0FAFB3068394610F076
:10AA800006FC84F00400C0F38000F8BDAC1A00207E
:10AA90000B46132270B503F8032B0C4600F1090294
:10AAA0002930166855689168D2F80CC0C3F80CC0FC
:10AAB000103282421E605D60996003F11003F0D194
:10AAC00012781A70A6880125A57129463046FEF72E
:10AAD000F7FA48B1E27842B1008804F039FD29461E
:10AAE0003046FEF703FB20B970BDBDE8704011F0A1
:10AAF000BDBB40F242212D20FDF7F0FC1323F7B53A
:10AB00000B700023CB7083691A888A800546012266
:10AB10008A71D8690C4610F04BFAAB6960839A8C45
:10AB2000A283DA8CE28393F8D92284F82020FF22D2
:10AB300084F821206A69128962845A7A012A04F110
:10AB40000E012ED1DA7B02F0C002402A29D1D3F8BF
:10AB50000A20C4F80E20DB898B80154B5868436DA2
:10AB60006361B0F858302383AF69BE78E671002383
:10AB70000622694654300093ADF804300DF0F6FA21
:10AB800010B146F00206E671D7F80330A360B7F8BB
:10AB90000730A381A86940B103B0BDE8F04011F0CF
:10ABA00065BB0023C4F80E30D6E703B0F0BD00BF8C
:10ABB000EC22002070B504460D46C869164610F018
:10ABC000F7F9AB8CA4F8A630EB8CA4F8A830A4F865
:10ABD000A400A37F95F8D92284F8AA201BB194F889
:10ABE0006830012B24D00022C4F89820A4F89C20BF
:10ABF0001F4B1B681A78C2F3801284F89120082E2C
:10AC0000D3F8032023D0C4F89E20B3F80730A4F86B
:10AC1000A23004F1920204F19101304604F082FE68
:10AC200008B394F8913043F0020384F8913070BD7A
:10AC300094F86E3003F0C003402BD4D1D4F86920CF
:10AC4000B4F86D30C4F89820A4F89C30D0E7C4F86C
:10AC50009220B3F80710A4F896100023C4F89E3091
:10AC6000A4F8A23070BD40F64A412D20FDF736FC15
:10AC7000AC1A00200B46162203F8032BD0F809204B
:10AC8000C1F80320CA7890F80DC083F804C01AB147
:10AC900030F8AC3C1B0700D5704710B5B1F8054043
:10ACA00001212046FEF70CFA38B1008804F050FC70
:10ACB00001212046FEF71AFA00B910BD40F28621A4
:10ACC0002D20FDF70BFC00BF2DE9F0438A4D8B4A88
:10ACD000AB6A87B05B680292894A03920026894A70
:10ACE0006E71044680F8816002A8CDE904232E82AB
:10ACF000AE60AE7108F038FE08F0B6F808F002FF5A
:10AD000007F068FC804808F0D5F9804808F026FE76
:10AD100004F1300730460DF0B9FB384601F0BEFBB8
:10AD2000384601F0C1FB08F0CFF92179252008F061
:10AD300005F894F9140008F0B7F92179304608F0C5
:10AD400049FBE86028B901232B71002007B0BDE85A
:10AD5000F08304F15001E06C0EF07EFE04F1580126
:10AD60000646E06C0EF09DFE07463EB194F8248046
:10AD7000B8F1000F02D04FF0010903E0002F5CD1C1
:10AD8000B846B946A37F13B9638859071BD5D4E9E0
:10AD900018236FF000418B4208BFB2F1FF3F54D03F
:10ADA00011F051FCD4E91823904271EB03034CD30A
:10ADB000414601222046FFF72FFE00284FD1B9F16E
:10ADC000000F40F09480002E08BF3E4694F8833078
:10ADD000002B71D1002E6FD12868033004F0C0FD24
:10ADE0006388A874DB07B0D50023266ACDE9003359
:10ADF0000122FF238DF8062085F8203006F10A078E
:10AE00006846FEF795F900289FD1009CA642F7D02E
:10AE1000727A607A3B4604F10A010FF087FF00283E
:10AE2000EED0A37885F82030D4F80320C5F821208F
:10AE3000374BB4F807209A8087E794F82580B8F15B
:10AE4000000918BF4FF001099CE7B9F1000FBAD013
:10AE5000012211462046FFF7DFFD002847D004F00D
:10AE60005BFD804611F0EFFB4FEA4813B3EB08039C
:10AE70004FEAD86262F10002520242EAD3525B0208
:10AE800013EB080342F1000C4FEA8C1E9A014EEAC4
:10AE9000936ED21A6EEB0C0C12EB08034CF100020D
:10AEA0001B1842EB0101C4E91831002E08BF3E46D1
:10AEB00094F88330002B8DD06388DA068CD4666CCE
:10AEC000C6F30B2605F020FAC0F30B039E42F9D01F
:10AED00094F8463084F84500C0F3032123F00F03B3
:10AEE0000B43002284F8463084F8832074E740F650
:10AEF00014212D20FDF7F2FAAC1A002011B6020041
:10AF00004DB2020019B10200D6BE898E55555500CA
:10AF1000CD1A00202DE9F047032984B004461646D7
:10AF200040D090F8803023B10025284604B0BDE819
:10AF3000F087052967D0464F97F812804FF0010936
:10AF4000B8F1000F39D13378082B70D0396894F8F4
:10AF50006F2011F8030B04F17003C0F380100FF0A1
:10AF6000E5FE3968054611F8030BC0F380100FF0B9
:10AF700008FF824604F07CFD0746002830D1337874
:10AF8000082B4FD0002D34D063885907CDD4002F23
:10AF9000CAD1B8F1000F53D1637D0BB14B45C3D17A
:10AFA0000125C2E743889A07BED5294F97F812803A
:10AFB0004FF00209B8F1000FC5D00FF0ECFE0828E1
:10AFC000307034D002AA0DF1070104F0ABFC002868
:10AFD00038D09DF8070002A911F007F88046B2E7C3
:10AFE000BAF1080F13D13378082B1BD00027002D9E
:10AFF000CAD1E57FED1A6388B5FA85F559074FEA9E
:10B00000551592D4C3E74388DB0794D48CE75046A8
:10B0100004F052FC33780028E6D1082B84D0002DB0
:10B02000B2D1E6E7638858073FF57FAFB1E73968EB
:10B0300011F8030BC0F3801010F0D7FF804685E7AE
:10B04000454672E740F63D712D20FDF747FA00BFF7
:10B05000AC1A002038B52E4DB0F84830AA7C013328
:10B060000446A0F84830B2B900232B7194F881301F
:10B070005BB9637C1BB1B4F848209A4212D22046D7
:10B080000021BDE8384002F08BBD20460121BDE81B
:10B09000384002F085BD08F035FD07F09BFA00232B
:10B0A000AB74E1E70121204602F07AFD6388DB07FB
:10B0B0000FD5236A1D8804F0ADF868B9637C217848
:10B0C00084F8B8104322A4F8B95084F8B720A3B18B
:10B0D00011E004F09FF800B138BD637C207884F85B
:10B0E000B8004FF0FF32432184F8B92084F8BA2029
:10B0F00084F8B7100BB194F8483084F8BB3004F1F1
:10B10000AE000449BDE83840022210F048BB00BF41
:10B11000AC1A002075AC020060B951B1074A13792E
:10B12000916AD06A096903F18043043B51F82330E6
:10B1300018477047014BD86AFFF78CBFAC1A002044
:10B140002DE9F04182B008230DF1070205210446E4
:10B150008DF80730FFF7DEFE00286BD06279216A98
:10B160002046FFF7F1FB216A002384F88D30088820
:10B17000A4F88E004FF6FF73FF2284F8AB20A4F8EA
:10B18000AC309DF807202046FFF714FD236A2D4AB6
:10B1900019881568A4F8C51093F8CD2084F8C72045
:10B1A00025B1184601222146A847236A264D286862
:10B1B000D0F80320C3F80320B0F80720A3F8072035
:10B1C0000678D4F820800027C6F3801688F802603D
:10B1D0000821078010F022F82868394610F07EF91F
:10B1E00028683A464FF0030110F07FF93A460623EB
:10B1F000286804F1690110F052F994F86810286881
:10B2000010F03CF82868314610F041F8062301227E
:10B21000286808F1030110F042F96179FF2007F076
:10B220008DFD286808F0B6FB092301202B7102B0C0
:10B23000BDE8F0812046FFF70DFF012002B0BDE818
:10B24000F08100BF6C000020AC1A0020F0B54D4C1E
:10B250002379022B85B003D02379032B40F086801D
:10B26000E36A1D6A0DB195F8755088B9A37C1BB1CE
:10B2700008F048FC07F0AEF9E06A02F0B7FA40B314
:10B2800007F0F8FFA36A9B6805B0BDE8F0401847D7
:10B29000216893F8682011F8096B6933F0090FF001
:10B2A00045FD0028E2D006F00F06052E206827D0C5
:10B2B000294610F012F80028D8D02379E06A022B32
:10B2C0000DD02379032B0AD040F6C5412D20FDF780
:10B2D00005F9E06A05B0BDE8F040FFF7BBBE237991
:10B2E000A26A03F180435269023B314652F823308F
:10B2F0009847A37C002B3ED10028BDD105B0F0BDFE
:10B3000090F8243003F01F03102BD1D9E76AFB7C9F
:10B31000002BCDD008230DF10F02314638468DF8B1
:10B320000F30FFF7F7FD0028A0D097F8E130002B91
:10B330009CD1216807F1E202CB1C23311E685D68B5
:10B340009868D3F80CC0C2F80CC010338B4216605A
:10B350005560906002F11002F0D11B8813800A49F9
:10B36000022207F1D90010F01AFA7FE740F6EC410B
:10B370002D20FDF7B3F8019008F0C4FB07F02AF97F
:10B380000198B9E7AC1A002079A402002DE9F04138
:10B3900004460E46002940F08E80704D286894F8CF
:10B3A0007670002303806388103B0D2B00F2C7806A
:10B3B000DFE803F07CC5771EC507C5C5C5C5C5C593
:10B3C000C50701210FF02AFF2868037823F0200326
:10B3D00043F020030370002F00F0948004F1770104
:10B3E0000FF045FF286801210FF051FF286809E0A0
:10B3F00000210FF013FF2868037823F0200343F0A7
:10B400002003037004F169010FF02AFF94F868101B
:10B4100028680FF033FF638823F008039BB2152BD5
:10B4200005D094F85420216D28680FF037FF286864
:10B4300008F0B0FA04232B71F6B16388102B6CD09E
:10B4400004F130084046EF6801F0C0F80646404677
:10B4500001F098F8013E301A61882822C0B201F04C
:10B46000F5F863881B0707445CD42279394600202D
:10B4700008F0FAF800286CD06388103B0D2B63D8D5
:10B48000DFE803F00D6207076207626262626262D0
:10B49000620721790120BDE8F04108F04DBBBDE80D
:10B4A000F08106210FF0BAFE2868ABE702210FF009
:10B4B000B5FE2868A6E700F13007384601F062F8CB
:10B4C000A8B963881A0735D5384601F07FF80546D4
:10B4D000384601F057F8281AC0B2204D01F0B0F8F4
:10B4E000AB681844A860384600F0D8FF00E01B4D58
:10B4F000384600F0D9FF07F0E7FD2179252007F055
:10B500001DFC4BE704F170010FF0B1FE286894F8C0
:10B510006F100FF0BCFE286874E72179002007F057
:10B52000D9FDA9E7AB681F4401F062F83844C4F8BC
:10B5300018019AE72046BDE8F041FFF78BBD40F2C5
:10B5400049612D20FCF7CAFF40F675512D20FCF70C
:10B55000C5FF40F661512D20FCF7C0FFAC1A00205A
:10B5600038B54388102B1FD0124DAB7C044663B90D
:10B57000286808F00FFA608810F004000BD0002053
:10B5800008F072FA02232B7138BD07F005F840204D
:10B5900008F0ACFAECE7217908F0CEFA002008F0C8
:10B5A00063FA02232B7138BDBDE838400121FFF753
:10B5B000EDBE00BFAC1A00200121FFF7E7BE00BFBF
:10B5C000024B0121D86AFFF7E1BE00BFAC1A002090
:10B5D00070B50C4E337963B90378FF2B054608D05C
:10B5E000FFF772FB044610B93379012B04D12046D2
:10B5F00070BD0C24204670BD01462846FFF7C6FEEC
:10B60000204670BDAC1A00200121FFF7BFBE00BF6D
:10B6100010B5164CA37CF3B9E06A02F0E7F8A8B1C4
:10B62000E06A438803F018038BB12379022B02D020
:10B630002379032B14D12379A26A03F18043D268C2
:10B64000023BBDE8104052F823301847E06ABDE8DD
:10B650001040FFF7FFBC08F055FA06F0BBFFDBE730
:10B6600040F6F4312D20FCF739FF00BFAC1A002062
:10B6700038B51D4C2379002B35D02379E56A022B90
:10B6800019D02379032B16D00CF042FF94F83030F8
:10B69000F3B1284602F0AAF8D0B1E46A63881B0728
:10B6A0001BD404F1300000F06DFFB0B92046BDE8B6
:10B6B0003840FFF7CFBCA37C002BE5D008F022FA7E
:10B6C00006F088FF0CF024FF94F83030002BE0D116
:10B6D0002846BDE83840FFF7BDBC20460121BDE843
:10B6E0003840FFF753BE38BDAC1A002030B50B68A8
:10B6F00083B0002B51D00C460546184600F066FF7B
:10B7000094F810E0627CBEF1040F3BD0254B264933
:10B7100033F81E30042A03F2E73323D0A1FB0313CE
:10B720004FEA931CBEF1080F00F1FF334FEAC31339
:10B7300025D0BEF1020F14BFF0216021634401FB4C
:10B740000031A388009328460023FEF7DBFED4E9EE
:10B750000223D730824273F100032CBF0120002066
:10B7600003B030BDA1FB03234FEA931CBEF1080FC9
:10B7700000F1FF334FF008024FEAC313D9D14FF461
:10B78000D261DBE7431E042A4FEAC3134FF02C0CAF
:10B79000F5D108224FF4D261D0E740F2FD312D20DF
:10B7A000FCF79CFEC8D30700D34D62102DE9F04F83
:10B7B00090F8803087B0002B3DD1458815F0010509
:10B7C000044638D0774E03F0FF0AB37C002B40F0DC
:10B7D000C680316811F8030BC0F3801010F005FC2F
:10B7E0004FF008098346316894F86F2011F8030B75
:10B7F00004F17003C0F380100FF098FA3168074627
:10B8000011F8030BC0F380100FF0BBFA804604F070
:10B810002FF9019018B1B8F1080F40F08680B9F106
:10B82000080F00F0AF80638857B95A0740F18A804B
:10B83000E37F4B4506D00025284607B0BDE8F08FD2
:10B840005B077FD53168584B11F8030B96F8202021
:10B85000C0F380100FF06AFA07460028EBD1216A86
:10B8600033681A7891F8CD3003EA521303F00103DC
:10B8700081F8CD3001222046FFF766F8216A84F86E
:10B880008D70FF23088884F8AB304FF6FF73A4F85F
:10B89000AC304A46A4F88E002046FFF78BF94349A6
:10B8A000022204F184000FF07AFF236A40491A88CB
:10B8B000A4F8C52093F8CD3084F8C730022204F1F3
:10B8C000BC000FF06CFF236A1F8803F0A3FC88B94B
:10B8D000637C2278A4F8B97084F8B70084F8B820A3
:10B8E000002B56D1334984F8BB30022204F1AE005C
:10B8F0000FF055FF304B1B680022327113B1206AE4
:10B90000214698473368226AD3F80310C2F803101F
:10B91000B3F80710A2F807101B78226AC3F380134C
:10B920002846937007B0BDE8F08F404603F0C4FF8F
:10B93000019B00287FF473AFB9F1080F3FF47BAF90
:10B940009A4670E7BAF1000F7FF475AFBBF1000FB4
:10B950007FF478AF637D012B3FF66DAF72E70FF098
:10B960001AFA082881463FF434AF04AA0DF10F01FA
:10B9700003F0D8FF80B19DF80F0004A910F035FB4B
:10B98000834630E763885907E0D5002F3FF453AF73
:10B9900058E794F84830A5E740F63D712D20FCF7B4
:10B9A0009DFD00BFAC1A0020CD1A002091AA020014
:10B9B00025A4020075AC02006C0000202DE9F047C0
:10B9C000032984B00CD0052946D1684B1C681CB1F2
:10B9D000A04780F00100C4B2204604B0BDE8F08763
:10B9E00043880546980737D5614EB37C002B38D184
:10B9F000316811F8030BC0F3801010F0F6FA4FF025
:10BA000008088146316895F86F2011F8030B05F19D
:10BA10007003C0F380100FF089F93168074611F800
:10BA2000030BC0F380100FF0ACF9824604F020F84D
:10BA3000044638B1BAF1080F04D0504603F03CFF79
:10BA4000002875D0B8F1080F41D000246B88DFB909
:10BA50005A0766D4002C3DD00124204604B0BDE82E
:10BA6000F0870FF098F908288046C1D002AA0DF19E
:10BA7000070103F057FF00286ED09DF8070002A9C8
:10BA800010F0B3FA8146BDE75B07E3D52B7C4BBBD7
:10BA900030680024048004210FF0C0FB306805F1F9
:10BAA00069010FF0DDFB95F8681030680FF0E6FBD8
:10BAB00095F85C20A96D30680FF0FFFB3068052316
:10BAC000337107F067FF204604B0BDE8F0876B884C
:10BAD00059072AD4B9F1000FD8D16B7D13F0FD0FAF
:10BAE000BAD1D3E795F8D030002BD1D12B7885F897
:10BAF000D130B8F1080F1FD005F1D30205F1D20102
:10BB0000404603F00FFF60B395F8D23043F00203D4
:10BB100085F8D2301749022205F1C8000FF03FFE28
:10BB2000B6E7EB7F434597D1B0E7002F94D0ADE760
:10BB3000B8F1080F8AD14FE731680B4613F8032B91
:10BB4000C2F3801285F8D220D1F80320C5F8D320A3
:10BB50009B88A5F8D730DDE740F63D712D20FCF736
:10BB6000BDFC40F6BA712D20FCF7B8FC680000203F
:10BB7000AC1A002061A4020008B590F88C3043B9DB
:10BB800090F8C4302BB990F8B63003F0FF0013B929
:10BB900008BD012008BD03F03DFB80F00100C0B2EC
:10BBA00008BD00BF10B50948037913B10C24204625
:10BBB00010BD03F0FF042422214604300CF0B0FB3A
:10BBC00007F0A0FF06F006FD204610BDAC1A0020CD
:10BBD00010B50E4C002323712379206023B140F26D
:10BBE0001E312D20FCF77AFC03F0FF012422201DDA
:10BBF0000CF096FB07F086FF06F0ECFCA36A03B19D
:10BC000010BD40F221312D20FCF768FCAC1A002059
:10BC100030B54FF4AC7285B004460D4600210CF0EF
:10BC20007FFB42F21073FF211322E38421706280B4
:10BC3000FDF752FB00220146E0646846FDF790FBE9
:10BC4000E06C002201210DF0EAFEE16C042268465E
:10BC5000FDF786FB0022E06C11460DF0E0FE04F1DA
:10BC60003000257500F0F8FB02A804F03FF830B171
:10BC700002A904F136000FF01EFA05B030BD40F203
:10BC80003A312D20FCF72AFCFF23C86C0B700DF015
:10BC900093BE00BF014B024A9A627047AC1A002063
:10BCA00040C40200064A0749074B084810B4084C34
:10BCB0001460084A5DF8044B08601A60704700BFC2
:10BCC000680000206C0000206400002029DB0200D6
:10BCD000ADB7020041B102000078FF3818BF012063
:10BCE000704700BF70B5044682B030300D4600F09A
:10BCF0006DFC6388D9062ED49A0794F804E01B4A99
:10BD00001B4932F81E20844602F2E7324CBFB4F8D9
:10BD10005C00B4F85400A1FB02120CF1FF36BEF136
:10BD2000080F4FEA92124FEAC61611D0BEF1040F67
:10BD300018D0BEF1020F14BFF021602100933244ED
:10BD400001FB0C212B466279FEF7DCFB02B070BDD3
:10BD50004FF4D261F2E72822194602B0BDE87040E4
:10BD600000F04ABC40F2BE21E8E700BFC8D307009C
:10BD7000D34D6210428812F0180F01D00120704795
:10BD800010B5034693ED027B86B0B0F804C0ADF861
:10BD9000042000F13004084669468DED027B0094D2
:10BDA000ADF810C0FFF7A2FC06B010BDD0E902014B
:10BDB000704700BF407D003818BF0120704700BFAA
:10BDC0002DE9F041857DAB1EDBB2012B04468CBF13
:10BDD00000270127002D5AD0B5F1020818BF4FF0F7
:10BDE0000108012B0BD943889A0666D40826022D38
:10BDF00068D0637F002B57D10020BDE8F08100F1AF
:10BE0000700190F86F000EF0BCFF63889B06064639
:10BE100005D40828EAD003F05BFD0028E7D1E677D7
:10BE2000A77784F8688003F077FD054610F00BFCD7
:10BE30006B015B1B4FEAD56C6CF1000C4FEA4C2C8C
:10BE40004CEAD35C5B025B194CF1000E4FEA8E1694
:10BE50004FEA831CBCEB030C46EA936666EB0E06C6
:10BE60001CEB050346F1000C18184CEB01010022F5
:10BE7000C4E9180184F8762011462046FEF7CCFD6F
:10BE80000028BAD140F2B6412D20FCF727FB4388A9
:10BE9000990614D4082604F16901002003F0E2FB9E
:10BEA0000028A9D0A846BAE7D4F81730C4F86930FA
:10BEB000B4F81B30A4F86D30B1E70826AFE7A84608
:10BEC0000826ACE74546E6E70B68C0F817308A88D5
:10BED000A0F81B2001234377704700BF2DE9F04FE6
:10BEE00084460C4690F8058090F812A00546BCE800
:10BEF0000F009DB010AF0FC7BCE80F000FC79CE844
:10BF00000F0008AE87E80F00304600F0A5FA237D49
:10BF1000A27A0592013BDBB2227861780692022B6D
:10BF200000F2E180724A134401F07F07C90693F8DA
:10BF3000149008D4A37D013BDBB2022B00F2D38026
:10BF4000134493F81480BAF1010F09D1B9F1080F25
:10BF500008BF4FF00409B8F1080F08BF4FF00408FC
:10BF6000617A304600F080FA237DA27E022B08BF62
:10BF7000617D02F1010206BF0131C9B20121D2B2D5
:10BF8000304600F073FA3A076FD500231A46CDE920
:10BF90000332E86CA37C079394F818A00DF0CBFD56
:10BFA0008346E86C0DF0D7FD5845AAF1010A38BF69
:10BFB0005846BAFA8AFA80B2DDE903324FEA5A1AD1
:10BFC00000283CD107998DF85510CDE9123205991A
:10BFD0008DF8561006998DF850A0ADF842708DF886
:10BFE00040108DF844908DF8458010AF0FCFAC46CF
:10BFF000ACE80F000FCFACE80F0097E80F008CE81B
:10C000000F0096E803002863A986E27A95F8463087
:10C0100012F0FD0F4FF0000E14BF0122724685F89A
:10C020006F20E2682A67228AA5F87420E27D62F315
:10C03000071385F8463070461DB0BDE8F08F17F045
:10C04000180FCDE90C320A96ADF82C708DF83890A7
:10C050008DF83980B6D10AA9FFF748FBDDE9033234
:10C060000028AFD14FF0450EE5E7304600F0AEFABC
:10C070006378DB06824626D52822394600F0BCFAD2
:10C080001C4B217900F53672A3FB0232E37843EAB8
:10C0900001236179520A43EA014340F2712101FB15
:10C0A00002F201FB03F39A420BD9E079A37943EA48
:10C0B0000023207A43EA004301FB03F39A4298BF2E
:10C0C0001346002263E7FDF733F94946034650461D
:10C0D0009A46FEF7EDF90097014601235046424685
:10C0E000FEF710FACCE740F29A210620FCF7F6F9A9
:10C0F000C8D307005917B7D1438813F0100005D0F3
:10C1000013F0040F14BF00201F2070479A0702D4B9
:10C11000DB0701D5EE207047FDF70AB908B5438863
:10C1200013F0100004D083F00403C3F3800008BDB3
:10C130009A07FCD413F00100F9D1FDF7F9F80038A3
:10C1400018BF012008BD00BF438800221D2B08BF77
:10C150001146A0F848204174704700BF90F91400C0
:10C16000704700BF408800F0010070474088C0F36E
:10C17000400070474088C0F3C000704708B543884E
:10C18000C06CDA0605D49B0703D5BDE808400DF066
:10C19000C9BC0DF0C7FC012008BD00BF4088C0F33A
:10C1A000001070474088A0F10900B0FA80F0400903
:10C1B000704700BF40797047024B9A6AD862136893
:10C1C000184700BFAC1A002090F8683001624B722B
:10C1D000D0F86930C1F80A30B0F86D30CB817047C3
:10C1E00038B5304C2379012B01D0002038BDB0F890
:10C1F0004830A27C01330546A0F84830002A36D1E9
:10C200000023237195F8813063BB6B7C1BB1B5F8BB
:10C2100048209A4204D20021284601F0C1FCE4E7FC
:10C220000121284601F0BCFC6B88DB0726D52B6A70
:10C230001C8802F0EFFF0028D7D16B7C297885F8A5
:10C24000B8104322A5F8B94085F8B7200BB195F88E
:10C250004830154985F8BB30022205F1AE000FF0D9
:10C260009EFAC2E70121284601F09AFCBDE707F0DB
:10C2700049FC06F0AFF90023A374C1E702F0CAFF3E
:10C280000028B2D16B7C287885F8B8004FF0FF32D7
:10C29000432185F8B92085F8BA2085F8B710002B1E
:10C2A000D7D0D4E7AC1A002075AC020038B52E4DBB
:10C2B000B0F84830AA7C01330446A0F84830B2B93F
:10C2C00000232B7194F881305BB9637C1BB1B4F807
:10C2D00048209A4212D220460021BDE8384001F0A1
:10C2E0005FBC20460121BDE8384001F059BC07F091
:10C2F00009FC06F06FF90023AB74E1E70121204649
:10C3000001F04EFC6388DB070FD5236A1D8802F01D
:10C3100081FF68B9637C217884F8B8104322A4F8BF
:10C32000B95084F8B720A3B111E002F073FF00B157
:10C3300038BD637C207884F8B8004FF0FF32432189
:10C3400084F8B92084F8BA2084F8B7100BB194F8B7
:10C35000483084F8BB3004F1AE000449BDE83840F1
:10C3600002220FF01CBA00BFAC1A002075AC02000C
:10C3700038B543881A07044632D4DB071AD5236A36
:10C380001D8802F047FF88B9637C217884F8B810D3
:10C390003C22A4F8B95084F8B720F3B91B4984F8BB
:10C3A000BB30022204F1AE000FF0F9F9012384F84A
:10C3B000813038BD02F02EFF0028F7D1637C207851
:10C3C00084F8B8004FF0FF323C2184F8B92084F89B
:10C3D000BA2084F8B710002BE0D094F84830DDE79D
:10C3E000036A0B493C2280F88D201888A4F88E003F
:10C3F0004FF6FF73FF2284F8AB20A4F8AC30022282
:10C4000004F184000FF0CBF96388B6E775AC020045
:10C4100091AA020080F88010704700BFFF2380F8C7
:10C420008330704780F8241080F82520704700BFC3
:10C43000BDB9020061B5020009B60200B9B502003B
:10C44000D1B5020071B60200C1B502003CC40200C1
:10C4500034C4020030C40200002240F20113C0F8CC
:10C4600002200380704700BF8170704708B590F8C4
:10C4700002C00170CCF380034270CCF3400003444F
:10C480000CF0010C634413FB01F101FB02F2FE2AE4
:10C4900000DC08BD5C212E20FCF720F8002343714E
:10C4A000A0F80330704700BF08B58378DA070DD5D0
:10C4B000C17811F0010C09D1427990F801E0013204
:10C4C000D2B29645427142D0252008BD990703D5C6
:10C4D000C27812F0020C23D05A0713D44279417863
:10C4E0000132D2B29142427108D1C1780022994200
:10C4F000427103D10379C2700133037139212E20B7
:10C50000FBF7ECFFC27812F0040CE7D1417990F808
:10C5100001E00131C9B28E45417126D0272008BD06
:10C52000417990F801E00131C9B28E45417101D0E5
:10C53000262008BD42F00202934280F805C0C27076
:10C54000F6D1037980F803C001330371F0E741F0BD
:10C5500001018B4280F805C0C170B5D1037980F824
:10C5600003C001330371252008BD42F00402934249
:10C5700080F805C0C270D1D1037980F803C00133BF
:10C580000371CBE710B590F802E004790178C27826
:10C5900090F801C0CEF38003091B4479CEF340002C
:10C5A00003440EF0010011FB0CF1184410FB01F0E4
:10C5B000C2F38003C2F340010B4402F00102001BEE
:10C5C000134403FB1C00C0B210BD00BF8378427847
:10C5D0000178C3F3400CC3F38000604403F001030F
:10C5E000184412FB01F310FB03F0C0B2704700BF08
:10C5F00040F2EF20704700BF0138022808B519D873
:10C60000132907D811290CD810290FD10B4B33F857
:10C61000100008BD152909D1084B03EB4000008923
:10C6200008BD064B03EB4000008A08BDD8212F202F
:10C63000FBF754FFCA212F20FBF750FFE0D3070080
:10C6400040F25A3303FB00F0704700BF08B5431EA9
:10C65000DBB2012B06D91D293AD140F25A3303FB34
:10C6600000F008BD10390D292DD801A252F821F093
:10C67000B3C60200C7C60200A9C60200A9C60200CE
:10C68000C7C60200BDC60200C7C60200C7C6020078
:10C69000C7C60200C7C60200C7C60200C7C602005E
:10C6A000C7C602005BC602000B4A02EB4303188CAC
:10C6B00008BD094A02EB4303188B08BD064A02EB8A
:10C6C0004303988B08BD4FF481712F20FBF706FFC1
:10C6D000EE212F20FBF702FFE0D3070008B540F260
:10C6E0004F310620FBF7FAFE70B582B00446FFF723
:10C6F00055FD18B96124204602B070BD2046FFF7F1
:10C7000031FDD0B164265A240DF1060007F068FF10
:10C710000DF107009DF9065007F068FF9DF80730FE
:10C720001D436DB2002D18BF34460BF021FF60B1E0
:10C730001834A4B2204602B070BD2046FFF716FDA3
:10C740000028DFD15A265024DEE70BF06DFE0028CA
:10C75000D1D00F34A4B2CEE72DE9F04182B0002849
:10C7600000F03F810446082900F22681DFE811F03D
:10C77000DB00E90009000900D6002401D000020115
:10C780002001FFF70BFD002800F0FE802046FFF798
:10C79000E9FC002800F01C8164275A250DF10600F1
:10C7A00007F01EFF0DF107009DF9066007F01EFF60
:10C7B0009DF807301E4376B2002E18BF3D460BF0A1
:10C7C000D7FE002800F0FC801835ADB2B4F82A314D
:10C7D000A4F8385100210122082B84F8301184F884
:10C7E0003B2100F2DE801344D4F80C219BB2A4F864
:10C7F0002A3112B1092B00F0D980022384F83A3192
:10C800000FF021FFD4F84021D4F84431171A63EB1C
:10C81000010805460E4608F023F9B4F83831D23342
:10C8200003449BB29F4278F1000204DA5B1946F19F
:10C830000006C4E9503604F59875002128460EF02C
:10C840003AFB94F8503103F0FF01002B40F0A18037
:10C85000D4E952026FF000439A4208BFB0F1FF3FA3
:10C8600013D02046D4E95067FFF73CFAD4F848319A
:10C87000D4F84C219B1B00F1F70062EB07021B1A56
:10C8800062F10002002AC0F2818094F80801294672
:10C890000AF04CF9002800F0B280D4F84011D4F826
:10C8A0002001D4F84431D4F82421884272EB0303E8
:10C8B00044D22046FFF77AFA50EA01030746884639
:10C8C0003CD0D4E95001D4F82031C01AD4F8243136
:10C8D0003A4661EB030143460BF0F0FB07FB01F521
:10C8E000D4E94831A7FB002600FB08559A183544C7
:10C8F00045EB0105C4E9482520E0E81A6F284FF010
:10C90000030138BF6F200AF099FEC4F8345138B3E0
:10C91000204602B0BDE8F041FFF7C8BC02B0BDE858
:10C92000F04107F089B9FFF747FC00285DD1D4F842
:10C930003401E7380AF0D8FD00285BD002B0BDE82A
:10C94000F081FFF717FC58B901462046FFF7CAF9F6
:10C95000D4F8343100F1F7059D42CED8C4F83451F3
:10C960002046FFF73DFC0028E8D040F2A22130200D
:10C97000FBF7B4FD90F8080109F07CFF002384F870
:10C98000283102B0BDE8F08161251FE72046FFF79E
:10C99000EFFC94F8080109F06DFF002384F82831BA
:10C9A0007BE7D4F80C31002B3FF427AF012325E7B8
:10C9B000EA213020FBF792FDEE213020FBF78EFDBF
:10C9C0000BF032FD00283FF401AF0F35ADB2FDE6AC
:10C9D0002046FFF7CBFB00287FF4DEAE5A27502518
:10C9E000DCE6CA213020FBF779FD40F277213020C8
:10C9F000FBF774FD4FF41F713020FBF76FFD40F221
:10CA0000AC613020FBF76AFD2DE9F04F04468BB096
:10CA10000020029394F87130069017460E46059355
:10CA20000EF045F894F8D9220B2A00F28183AA4B24
:10CA300033F8125094F8C6200392284487F001027C
:10CA400085B204922FB3B4F868A3B4F8BC90A6EBF7
:10CA50000A0A0FFA8AFAA6EB0909BAF1000F0FFACF
:10CA600089F904F55078C0F2C5819C4ADDF808B018
:10CA7000127802F0FF07002A40F0CD8194F82433A9
:10CA8000032B00F25C83DFE813F02D01F90098001E
:10CA9000300094F82423032AD5D1039A0E2AD2D148
:10CAA000B4F8B423B242CED1B4F86A23B4F8F61283
:10CAB0000A44C4F82023D4F82C23C4F81823E269CC
:10CAC000C4F81C23204605F011FCD4F8B823E26218
:10CAD000B4F8B6232286D4F8BC23E261D4F8C0238C
